{
    "_format": "hh-sol-artifact-1",
    "contractName": "EvidenceRegistry",
    "sourceName": "contracts/EvidenceRegistry.sol",
    "abi": [
        {
            "anonymous": false,
            "inputs": [
                {
                    "indexed": true,
                    "internalType": "string",
                    "name": "ipfsHash",
                    "type": "string"
                },
                {
                    "indexed": false,
                    "internalType": "string",
                    "name": "fileHash",
                    "type": "string"
                },
                {
                    "indexed": true,
                    "internalType": "address",
                    "name": "uploader",
                    "type": "address"
                },
                {
                    "indexed": false,
                    "internalType": "uint256",
                    "name": "timestamp",
                    "type": "uint256"
                }
            ],
            "name": "EvidenceRegistered",
            "type": "event"
        },
        {
            "anonymous": false,
            "inputs": [
                {
                    "indexed": true,
                    "internalType": "string",
                    "name": "ipfsHash",
                    "type": "string"
                },
                {
                    "indexed": true,
                    "internalType": "address",
                    "name": "viewer",
                    "type": "address"
                },
                {
                    "indexed": false,
                    "internalType": "uint256",
                    "name": "timestamp",
                    "type": "uint256"
                }
            ],
            "name": "EvidenceViewed",
            "type": "event"
        },
        {
            "inputs": [
                {
                    "internalType": "string",
                    "name": "",
                    "type": "string"
                }
            ],
            "name": "evidenceRecords",
            "outputs": [
                {
                    "internalType": "string",
                    "name": "ipfsHash",
                    "type": "string"
                },
                {
                    "internalType": "string",
                    "name": "fileHash",
                    "type": "string"
                },
                {
                    "internalType": "address",
                    "name": "uploader",
                    "type": "address"
                },
                {
                    "internalType": "uint256",
                    "name": "timestamp",
                    "type": "uint256"
                },
                {
                    "internalType": "bool",
                    "name": "exists",
                    "type": "bool"
                }
            ],
            "stateMutability": "view",
            "type": "function"
        },
        {
            "inputs": [
                {
                    "internalType": "string",
                    "name": "_ipfsHash",
                    "type": "string"
                },
                {
                    "internalType": "string",
                    "name": "_fileHash",
                    "type": "string"
                }
            ],
            "name": "registerEvidence",
            "outputs": [],
            "stateMutability": "nonpayable",
            "type": "function"
        },
        {
            "inputs": [
                {
                    "internalType": "string",
                    "name": "_ipfsHash",
                    "type": "string"
                }
            ],
            "name": "verifyEvidence",
            "outputs": [
                {
                    "internalType": "string",
                    "name": "fileHash",
                    "type": "string"
                },
                {
                    "internalType": "address",
                    "name": "uploader",
                    "type": "address"
                },
                {
                    "internalType": "uint256",
                    "name": "timestamp",
                    "type": "uint256"
                },
                {
                    "internalType": "bool",
                    "name": "exists",
                    "type": "bool"
                }
            ],
            "stateMutability": "view",
            "type": "function"
        },
        {
            "inputs": [
                {
                    "internalType": "string",
                    "name": "_ipfsHash",
                    "type": "string"
                }
            ],
            "name": "viewEvidence",
            "outputs": [],
            "stateMutability": "nonpayable",
            "type": "function"
        }
    ],
    "bytecode": "0x608060405234801561001057600080fd5b506109e5806100206000396000f3fe608060405234801561001057600080fd5b506004361061004c5760003560e01c8063089a0f051461005157806339ed370e146100665780636f13f95a14610093578063c417ad0c146100b6575b600080fd5b61006461005f3660046106ad565b6100c9565b005b610079610074366004610711565b610248565b60405161008a95949392919061079e565b60405180910390f35b6100a66100a1366004610711565b6103a0565b60405161008a94939291906107ec565b6100646100c4366004610711565b61054b565b6000826040516100d99190610826565b9081526040519081900360200190206004015460ff16156101415760405162461bcd60e51b815260206004820152601b60248201527f45766964656e636520616c72656164792072656769737465726564000000000060448201526064015b60405180910390fd5b6040805160a081018252838152602081018390523381830152426060820152600160808201529051600090610177908590610826565b9081526040519081900360200190208151819061019490826108cd565b50602082015160018201906101a990826108cd565b506040828101516002830180546001600160a01b0319166001600160a01b03909216919091179055606083015160038301556080909201516004909101805460ff1916911515919091179055513390610203908490610826565b60405180910390207f6979e8b60804095cdd72cbbfdd634f447999402658bfc0e78f57bd2802dd99b5834260405161023c92919061098d565b60405180910390a35050565b805160208183018101805160008252928201919093012091528054819061026e90610842565b80601f016020809104026020016040519081016040528092919081815260200182805461029a90610842565b80156102e75780601f106102bc576101008083540402835291602001916102e7565b820191906000526020600020905b8154815290600101906020018083116102ca57829003601f168201915b5050505050908060010180546102fc90610842565b80601f016020809104026020016040519081016040528092919081815260200182805461032890610842565b80156103755780601f1061034a57610100808354040283529160200191610375565b820191906000526020600020905b81548152906001019060200180831161035857829003601f168201915b505050506002830154600384015460049094015492936001600160a01b039091169290915060ff1685565b60606000806000806000866040516103b89190610826565b90815260200160405180910390206040518060a00160405290816000820180546103e190610842565b80601f016020809104026020016040519081016040528092919081815260200182805461040d90610842565b801561045a5780601f1061042f5761010080835404028352916020019161045a565b820191906000526020600020905b81548152906001019060200180831161043d57829003601f168201915b5050505050815260200160018201805461047390610842565b80601f016020809104026020016040519081016040528092919081815260200182805461049f90610842565b80156104ec5780601f106104c1576101008083540402835291602001916104ec565b820191906000526020600020905b8154815290600101906020018083116104cf57829003601f168201915b505050918352505060028201546001600160a01b0316602080830191909152600383015460408084019190915260049093015460ff16151560609283015283015191830151908301516080909301519199909850919650945092505050565b60008160405161055b9190610826565b9081526040519081900360200190206004015460ff166105bd5760405162461bcd60e51b815260206004820152601760248201527f45766964656e636520646f6573206e6f742065786973740000000000000000006044820152606401610138565b60405133906105cd908390610826565b604051908190038120428252907ff89061a7a0e523e309c34a73088581e88aa38c8a83aa72709ec3b24411e2d8c39060200160405180910390a350565b634e487b7160e01b600052604160045260246000fd5b600082601f83011261063157600080fd5b813567ffffffffffffffff8082111561064c5761064c61060a565b604051601f8301601f19908116603f011681019082821181831017156106745761067461060a565b8160405283815286602085880101111561068d57600080fd5b836020870160208301376000602085830101528094505050505092915050565b600080604083850312156106c057600080fd5b823567ffffffffffffffff808211156106d857600080fd5b6106e486838701610620565b935060208501359150808211156106fa57600080fd5b5061070785828601610620565b9150509250929050565b60006020828403121561072357600080fd5b813567ffffffffffffffff81111561073a57600080fd5b61074684828501610620565b949350505050565b60005b83811015610769578181015183820152602001610751565b50506000910152565b6000815180845261078a81602086016020860161074e565b601f01601f19169290920160200192915050565b60a0815260006107b160a0830188610772565b82810360208401526107c38188610772565b6001600160a01b0396909616604084015250506060810192909252151560809091015292915050565b6080815260006107ff6080830187610772565b6001600160a01b039590951660208301525060408101929092521515606090910152919050565b6000825161083881846020870161074e565b9190910192915050565b600181811c9082168061085657607f821691505b60208210810361087657634e487b7160e01b600052602260045260246000fd5b50919050565b601f8211156108c8576000816000526020600020601f850160051c810160208610156108a55750805b601f850160051c820191505b818110156108c4578281556001016108b1565b5050505b505050565b815167ffffffffffffffff8111156108e7576108e761060a565b6108fb816108f58454610842565b8461087c565b602080601f83116001811461093057600084156109185750858301515b600019600386901b1c1916600185901b1785556108c4565b600085815260208120601f198616915b8281101561095f57888601518255948401946001909101908401610940565b508582101561097d5787850151600019600388901b60f8161c191681555b5050505050600190811b01905550565b6040815260006109a06040830185610772565b9050826020830152939250505056fea26469706673582212203d348cb188d45a39b22dc049afad88c87a6f20e702646ea13f8326693e4c4dfd64736f6c63430008170033",
    "linkReferences": {},
    "deployedLinkReferences": {}
}